:020000040800F2
:10000000400C002081020008E1020008E102000823
:10001000E1020008E1020008E1020008000000001F
:10002000000000000000000000000000E1020008E5
:10003000E102000800000000E1020008E1020008FF
:10004000E1020008E1020008E1020008E102000804
:10005000E1020008E1020008E1020008E1020008F4
:10006000E1020008E1020008E1020008E1020008E4
:10007000E1020008E1020008E1020008E1020008D4
:10008000E1020008E1020008E1020008E1020008C4
:10009000E1020008E1020008E1020008E1020008B4
:1000A000E1020008E1020008E1020008E1020008A4
:1000B000E1020008E1020008E1020008E102000894
:1000C000E1020008E1020008E1020008E102000884
:1000D000E1020008E1020008E1020008E102000874
:1000E000E1020008E1020008E1020008000000004F
:1000F0000000000000000000000000000000000000
:1001000000000000000000005FF808F180B500AFBB
:10011000154B1B68144A43F001031360124B5A68D5
:100120001149124B13404B600F4B1B680E4A23F0D2
:10013000847323F4803313600B4B1B680A4A23F447
:1001400080231360084B5B68074A23F4FE03536067
:10015000054B4FF41F029A6000F00CF8044B4FF06F
:1001600000629A6000BF80BD001002400000FFF8EE
:1001700000ED00E080B500AF00F002F800BF80BDE8
:1001800080B483B000AF00237B6000233B603A4B18
:100190001B68394A43F480331360374B1B6803F400
:1001A00000333B607B6801337B603B68002B03D1ED
:1001B0007B68B3F5A06FF0D12F4B1B6803F40033BD
:1001C000002B02D001233B6001E000233B603B6831
:1001D000012B4BD1294B1B68284A43F010031360B5
:1001E000264B1B68254A23F003031360234B1B682F
:1001F000224A43F0020313601F4B1F4A5B6853609F
:100200001D4B1D4A5B6853601B4B5B681A4A43F4E5
:1002100080635360184B5B68174A23F47C13536068
:10022000154B5B68144A43F4E8135360124B1B6888
:10023000114A43F08073136000BF0F4B1B6803F03B
:100240000073002BF9D00C4B5B680B4A23F00303BF
:100250005360094B5B68084A43F00203536000BFD8
:10026000054B5B6803F00C03082BF9D100BF0C377A
:10027000BD4680BC704700BF001002400020024015
:1002800080B582B000AF114B7B60114B3B6007E043
:100290007A68131D7B603B68191D396012681A600B
:1002A0003B680C4A9342F3D30B480C494FF00002D1
:1002B0008842B8BF40F8042BFADBFFF727FF00F0B5
:1002C000CFF800BF0837BD4680BD00BFC866000834
:1002D00000000020C0060020C00600203C080020CE
:1002E00080B400AF00BFFDE780B489B000AF786094
:1002F00039600023FB6100233B610023BB610023C5
:10030000FB6000237B610023BB603B68DB7803F06C
:100310000F03FB613B68DB7803F01003002B05D073
:100320003B689B781A46FB691343FB613B681B885B
:10033000DBB2002B44D07B681B687B610023BB6170
:1003400038E00122BB6902FA03F3FB603B681B88BB
:100350001A46FB6813403B613A69FB689A4226D112
:10036000BB699B00FB600F22FB6802FA03F3BB60D2
:10037000BB68DB437A6913407B61FA69FB6802FA68
:1003800003F37A6913437B613B68DB78282B05D143
:100390000122BB699A407B685A6108E03B68DB78C0
:1003A000482B04D10122BB699A407B681A61BB6962
:1003B0000133BB61BB69072BC3D97B687A691A60BB
:1003C0003B681B88FF2B46D97B685B687B610023F9
:1003D000BB613AE0BB690833012202FA03F3FB6018
:1003E0003B681B881A46FB6813403B613A69FB680F
:1003F0009A4227D1BB699B00FB600F22FB6802FA7F
:1004000003F3BB60BB68DB437A6913407B61FA6925
:10041000FB6802FA03F37A6913437B613B68DB787C
:10042000282B05D1BB69083301229A407B685A61A9
:100430003B68DB78482B05D1BB69083301229A4021
:100440007B681A61BB690133BB61BB69072BC1D9EA
:100450007B687A695A6000BF2437BD4680BC70470C
:1004600080B59CB000AF0023FB660023BB6600F0A4
:100470008FFC00F06BF800F023F800F017F8B86676
:10048000381DFB6EBA6E084900F0F8FC3B1D18469B
:1004900000F0D6FCFB6E0133FB664FF4FA7000F0FF
:1004A0007FF800BFE9E700BF1863000880B500AF20
:1004B000024800F0F0FA0346184680BD00240140CF
:1004C00080B586B000AF4FF4004000F089F80121FC
:1004D0004FF4007000F056F900237B6000233B725C
:1004E00001237B724FF46023FB6000233B610123F7
:1004F0003B75052301220321134800F003FA3B1D3D
:100500001946114800F05CF901210F4800F0AAF9E2
:100510000D4800F0C2F900BF0B4800F0CDF90346CA
:10052000002BF9D1084800F0DEF900BF064800F0C2
:10053000C3F90346002BF9D10121034800F092F9D9
:1005400000BF1837BD4680BD0024014080B582B091
:1005500000AF0121082000F015F90121042000F06E
:1005600011F90223BB800323BB711023FB713B1DD8
:1005700019460948FFF7B8FE0823BB800323BB7167
:100580000023FB713B1D19460448FFF7ADFE00BF79
:100590000837BD4680BD00BF000C01400008014087
:1005A00080B485B000AF78600023FB600DE00023CD
:1005B000BB6002E0BB680133BB60BB6842F6FE2251
:1005C0009342F7D9FB680133FB60FA687B689A4273
:1005D000EDD300BF00BF1437BD4680BC704700009C
:1005E00080B485B000AF78600023FB60094B5B6886
:1005F000FB60FB6823F44043FB60FA687B681343AD
:10060000FB60044AFB68536000BF1437BD4680BCE2
:10061000704700BF0010024080B487B000AF786020
:1006200000237B6100233B610023FB600023BB6050
:100630004F4B5B6803F00C037B617B69082B11D087
:100640007B69082B3AD87B69002B03D07B69042B8C
:1006500004D033E07B68474A1A6033E07B68454A40
:100660001A602FE0424B5B6803F470133B61404B10
:100670005B6803F48033FB603B699B0C02333B6196
:10068000FB68002B06D13B693B4A03FB02F27B6807
:100690001A6017E0364B5B6803F40033002B06D07A
:1006A0003B69354A03FB02F27B681A600AE03B694A
:1006B000304A03FB02F27B681A6003E07B682D4A34
:1006C0001A6000BF2A4B5B6803F0F0037B617B6913
:1006D0001B097B61294A7B6913441B78DBB2BB6031
:1006E0007B681A68BB68DA407B685A60204B5B689D
:1006F00003F4E0637B617B691B0A7B611F4A7B69B2
:1007000013441B78DBB2BB607B685A68BB68DA4075
:100710007B689A60164B5B6803F460537B617B696E
:10072000DB0A7B61154A7B6913441B78DBB2BB6033
:100730007B685A68BB68DA407B68DA600C4B5B68A0
:1007400003F440437B617B699B0B7B610C4A7B69B3
:1007500013441B78DBB2BB607B68DA68BB68B2FB12
:10076000F3F27B681A6100BF1C37BD4680BC70473E
:100770000010024000127A0000093D000000002035
:100780001000002080B483B000AF78600B46FB708F
:10079000FB78002B06D0094B9A6908497B68134304
:1007A0008B6106E0054B9A697B68DB430349134084
:1007B0008B6100BF0C37BD4680BC70470010024003
:1007C00080B485B000AF786039600023FB600023FF
:1007D000FB727B685B68FB60FB6823F4702323F487
:1007E0008073FB603B681A683B681B791B021343EC
:1007F000FA681343FB607B68FA685A607B689B6801
:10080000FB60FA68164B1340FB603B68DA683B6894
:100810009B681A433B685B795B001343FA68134398
:10082000FB607B68FA689A607B68DB6AFB60FB6848
:1008300023F47003FB603B681B7C013BDAB2FB7A5C
:100840001343FB72FB7A1B05FA681343FB607B685A
:10085000FA68DA6200BF1437BD4680BC704700BF3B
:10086000FDF7F1FF80B483B000AF78600B46FB70FA
:10087000FB78002B06D07B689B6843F001027B6805
:100880009A6005E07B689B6823F001027B689A60B0
:1008900000BF0C37BD4680BC704780B483B000AF4A
:1008A00078607B689B6843F008027B689A6000BFB1
:1008B0000C37BD4680BC704780B485B000AF78600F
:1008C0000023FB737B689B6803F00803002B02D0B6
:1008D0000123FB7301E00023FB73FB7B18461437F5
:1008E000BD4680BC704780B483B000AF78607B6841
:1008F0009B6843F004027B689A6000BF0C37BD46DA
:1009000080BC704780B485B000AF7860084611465F
:100910001A460346FB700B46BB7013467B700023E0
:10092000FB600023BB60FB78092B23D97B68DB6865
:10093000FB60FB78A3F10A0213465B001344072215
:1009400002FA03F3BB60BB68DB43FA681340FB6049
:100950007978FB78A3F10A0213465B00134401FA8D
:1009600003F3BB60FA68BB681343FB607B68FA68FB
:10097000DA601EE07B681B69FB60FA7813465B0057
:100980001344072202FA03F3BB60BB68DB43FA6837
:100990001340FB607978FA7813465B00134401FA40
:1009A00003F3BB60FA68BB681343FB607B68FA68BB
:1009B0001A61BB78062B21D87B685B6BFB60BB7828
:1009C0005A1E13469B0013441F2202FA03F3BB6016
:1009D000BB68DB43FA681340FB60F978BB785A1EAA
:1009E00013469B00134401FA03F3BB60FA68BB682B
:1009F0001343FB607B68FA685A6347E0BB780C2BB3
:100A000021D87B681B6BFB60BB78DA1F13469B0009
:100A100013441F2202FA03F3BB60BB68DB43FA688E
:100A20001340FB60F978BB78DA1F13469B00134430
:100A300001FA03F3BB60FA68BB681343FB607B6891
:100A4000FA681A6322E07B68DB6AFB60BB78A3F17B
:100A50000D0213469B0013441F2202FA03F3BB60EE
:100A6000BB68DB43FA681340FB60F978BB78A3F1FD
:100A70000D0213469B00134401FA03F3BB60FA68AE
:100A8000BB681343FB607B68FA68DA6200BF143707
:100A9000BD4680BC704780B483B000AF78607B688F
:100AA000DB6C9BB218460C37BD4680BC704700001B
:100AB00080B58CB000AF786039600023FB62002302
:100AC000BB6200237B6200233B620023FB617B68E7
:100AD000FB617B681B8A9BB2FB62FA6A4CF6FF7370
:100AE0001340FB623B68DB881A46FB6A1343FB62D8
:100AF000FB6A9AB27B681A827B689B899BB2FB6215
:100B0000FA6A4EF6F3131340FB623B689A883B681F
:100B10001B8913439AB23B685B8913439BB21A4605
:100B2000FB6A1343FB62FB6A9AB27B689A817B681B
:100B30009B8A9BB2FB62FA6A4FF6FF431340FB624B
:100B40003B689B891A46FB6A1343FB62FB6A9AB2B5
:100B50007B689A8207F108031846FFF75DFDFB6981
:100B60002E4A934202D17B69BB6201E03B69BB62C2
:100B70007B689B899BB21BB2002B0CDABA6A1346C6
:100B80009B0013449A001A443B681B685B00B2FB4D
:100B9000F3F37B620BE0BA6A13469B0013449A009E
:100BA0001A443B681B689B00B2FBF3F37B627B6AD1
:100BB0001B4AA2FB03235B091B01FB62FB6A1B09A7
:100BC000642202FB03F37A6AD31A3B627B689B8937
:100BD0009BB21BB2002B0CDA3B6ADB003233104AAB
:100BE000A2FB03235B0903F00703FA6A1343FB62CA
:100BF0000BE03B6A1B013233094AA2FB03235B096A
:100C000003F00F03FA6A1343FB62FB6A9AB27B6834
:100C10001A8100BF3037BD4680BD00BF003801409B
:100C20001F85EB5180B483B000AF78600B46FB703A
:100C3000FB78002B08D07B689B899BB243F4005360
:100C40009AB27B689A8107E07B689B899BB223F408
:100C500000539AB27B689A8100BF0C37BD4680BCB6
:100C6000704780B483B000AF78600B467B807B8890
:100C7000C3F308039AB27B689A8000BF0C37BD4665
:100C800080BC704780B485B000AF78600B467B8035
:100C90000023FB737B681B889AB27B8813409BB24E
:100CA000002B02D00123FB7301E00023FB73FB7BCD
:100CB00018461437BD4680BC7047000080B485B02C
:100CC00000AF78600A4B1B68002B02D1084B094A21
:100CD0001A60074B1B68FB60054B1A687B6813445E
:100CE000034A1360FB6818461437BD4680BC704742
:100CF000C00600203C08002080B483B000AF7860BC
:100D00004FF0FF3318460C37BD4680BC704780B4A7
:100D100083B000AF786039603B684FF400525A608E
:100D2000002318460C37BD4680BC704780B483B0A2
:100D300000AF7860012318460C37BD4680BC704771
:100D400080B485B000AFF860B9607A6000231846BF
:100D50001437BD4680BC704780B485B000AFF860E2
:100D6000B9607A607B6818461437BD4680BC70470E
:100D700080B485B000AFF860B9607A607B681846CF
:100D80001437BD4680BC704780B400AF00BFFDE79C
:100D900080B586B000AF012144F20400FFF7F2FCF9
:100DA0004FF40073BB821823FB750323BB7507F157
:100DB000140319461348FFF797FA4FF48063BB8278
:100DC0000423FB7507F1140319460E48FFF78CFA4C
:100DD0004FF4E1337B6000233B8100237B810023C0
:100DE000BB8100233B820C23FB813B1D1946064837
:100DF000FFF75EFE01210448FFF714FF00BF18371C
:100E0000BD4680BD000801400038014080B582B079
:100E100000AF786039607B68DBB219460748FFF79E
:100E200020FF00BF40210548FFF72CFF0346012BA0
:100E3000F8D17B6818460837BD4680BD00380140B0
:100E400080B584B000AF78600023FB600AE0FB68E7
:100E50007A6813441B7800211846FFF7D7FFFB6818
:100E60000133FB60FB687A6813441B78002BEED1DA
:100E700000BF00BF1037BD4680BD00000EB46FF04C
:100E8000004100B59CB01DAB029006900791049103
:100E90000848094953F8042B0591006802A90193F9
:100EA00000F00CF80022029B1A701CB05DF804EBF5
:100EB00003B07047140000200802FFFF2DE9F04F37
:100EC000D7B0884691461E46079001F0D3FA0368D2
:100ED00018461A9301F02AFBB8F80C301190190645
:100EE00015D5D8F8103093B94021079802F0A6FA2A
:100EF000C8F80000C8F8100030B90C23079A136036
:100F00004FF0FF331393EFE14023C8F81430002370
:100F10000022CDE92B3308930023CDE90E230023D3
:100F2000CDE91C332DAC2A940D9316931B93139388
:100F30004B461D4613F8012B0AB1252AF9D1B5EB12
:100F400009070DD02C9BC4E900973B442C932B9BA5
:100F50000133072B2B9375DC0834139B3B4413930D
:100F60002B78002B01F0248100226B1C93464FF05C
:100F7000FF358DF88B20129213F8012B0A921093F3
:100F80000A9B203B5A2B00F29685DFE813F09E0067
:100F900094059405A600940594059405860094058F
:100FA0009405A900B3009405B000B5009405CE00E7
:100FB000D100D100D100D100D100D100D100D100A9
:100FC000D100940594059405940594059405940521
:100FD00040019405FF0011014001400140019405CA
:100FE000940594059405E200940594058F049405F6
:100FF00094059405D7049405F60494059405180502
:101000009405940594059405940594059405940518
:1010100040019405FF001301400140014001E5003B
:101020001301F9009405F20094056C049104C604C0
:10103000F9009405D7049C00F80494059405650014
:1010400094059C00414607982AAA02F06FFF0028E9
:1010500040F045812DAC80E7A64B1D931BF020038B
:1010600000F0B084073626F007031A4652F8086BE2
:101070005F680B921BF0010F0AD056EA070307D0F6
:1010800030238DF88C300A9B4BF0020B8DF88D309D
:1010900002232BF4806B00F019BC079801F0EAF9E9
:1010A000436818461B9301F041FA1690079801F027
:1010B000E1F983680D93169B2BB10D9B1BB11B7837
:1010C0000BB14BF4806B109B56E79DF88B30002BD7
:1010D000F9D120238DF88B30F5E74BF0010BF2E7C7
:1010E00056F8043B002B1293EDDA5B4212934BF05F
:1010F000040BE8E72B23EDE7109B13F8012B2A2ABA
:101100000A920FD156F8045B109345EAE575DAE7C9
:1011100001FB052513F8012B0A920A9A303A092A95
:10112000F6D92CE700250A21F7E74BF0800BCAE738
:1011300000220A21109B12920A9A1298303A01FB5F
:101140000022129213F8012B0A92303A092AF3D99D
:1011500015E74BF0080BB6E7109B1B78682B01BF17
:10116000109B4BF4007B0133109318BF4BF0400BE6
:10117000A9E7109B1B786C2B05D1109B01331093B2
:101180004BF0200B9FE74BF0100B9CE7324652F8D8
:10119000043B8DF8F43000230B928DF88B309A4687
:1011A00001251F461E4614930C930DF1F409CDE161
:1011B0004BF0100B1BF0200F11D0073626F0070361
:1011C0001A4652F8086B5F680B92002F05DA2D2340
:1011D000764267EB47078DF88B30012379E333467E
:1011E00053F8047B1BF0100F0B9302D03E46FF1701
:1011F000EBE71BF0400F03D03EB247F3C037E4E704
:101200001BF4007FF2D07EB247F3C017DDE707364C
:1012100026F007031946F1E80223CDE90E230E9BC1
:101220000B911E930F9B4FF0FF3223F000431F934F
:10123000DDE91E01304B04F0BBFE08BBDDE91E01F9
:101240004FF0FF322C4B04F095FEC8B9DDE90E01DA
:101250000022002304F084FE10B12D238DF88B3082
:10126000264A274B0A994FF0000A4729D4BF9146D6
:10127000994603252BF0800BCDF850A000F0D0BF8D
:10128000DDE90E231046194604F092FE824640B175
:101290000F9B1C4A002BBCBF2D238DF88B301A4BA3
:1012A000E0E70A9B612B23D0412B2FD1582330221A
:1012B000632D8DF88C208DF88D304BF0020B40F3B0
:1012C000A8800798691C02F0B9F88146002840F010
:1012D000A580B8F80C3043F04003A8F80C30B8F8FB
:1012E0000C305B063FF50CAE139857B0BDE8F08F9D
:1012F0007823DCE742630008FFFFEF7F32630008DA
:10130000366300083A6300083E6300086A1C00F078
:1013100087800A9B23F02003472B02D10DB9AA46F0
:1013200001254BF4807315930F9B002B7ADA0E9BEB
:1013300018930F9B03F1004319932D2320930A9BCD
:1013400023F02003412B0C9340F0D681DDE91801F6
:1013500024AA01F0F3F800224FF07F5304F08EFB33
:1013600002460B46CDE908230022002304F0EEFDDF
:1013700008B1012324932F4A2F4B0A994E46612925
:1013800018BF1A466F1E1492DDE9080100222B4B8C
:1013900004F074FB02460B46CDE9082304F01EFE60
:1013A000179004F001FB02460B46DDE9080104F04A
:1013B000ADF902460B46CDE90823149B179A9B5CB6
:1013C00006F8013B7B1C06D07B1E219300220023E4
:1013D00004F0BCFD60B30022DDE90801184B04F005
:1013E000DDFD78BBDDE908010022154B04F0AEFD00
:1013F00010B1179BDA0725D433463020F119CA1AE9
:10140000002A80F276817B1C0137B8BF00231E447E
:101410002CE04FF0000A0DF1F40982E7824680E7E4
:1014200006257EE7DDE90E23CDE91823002385E7B5
:10143000219FA9E742630008536300080000304081
:101440000000E03F3020149B2896D97B289A531E39
:10145000289312F8013C8B4200F04881392B0BBFD6
:10146000149B01339B7ADBB202F8013CA6EB090323
:1014700008930C9B249E472B40F08781F31C02DBD2
:10148000AE4240F3A5810A9B023B0A930A999DF85C
:10149000282021F02001412908BF0F3206F1FF3337
:1014A00006BFD2B201210021002B8DF89820B4BFD5
:1014B0002D222B222493B8BFC6F10103092B8DF8EE
:1014C000992040F378810A260DF1A700B3FBF6F5C9
:1014D000024606FB1531303102F8011C194663291A
:1014E0002B4600F1FF30F1DC3033911E00F8013C57
:1014F0000B460DF199050DF1A7008342C0F056810E
:101500000DF1A9039B1A814288BF00230DF19A02B5
:101510001A4426ABD31A089A1C93012A03EB02053E
:1015200002DC1BF0010F01D0119B1D4400273E4639
:101530002BF4806343F4807315930C97209B002B4E
:1015400040F08D810023DDF854B01493149BAB421E
:10155000B8BF2B4615939DF88B3013B1159B013303
:1015600015931BF0020320931EBF159B02331593A6
:101570001BF08403219321D1129B159A9B1A002BF7
:1015800017931BDDDDE92B231798013210289D48A6
:1015900004F10801206000F39A821798072A034497
:1015A000CDE92B23606040F3A782414607982AAA21
:1015B00002F0BCFC002840F0D9852DAC9DF88B20B2
:1015C0002C9B6AB10DF18B022260012213442C93F3
:1015D0002B9B62601344072B2B9300F38F820834FC
:1015E000209A2C9B62B123AA2260022213442C93DE
:1015F0002B9B62600133072B2B9300F38982083405
:10160000219B802B21D1129B159A9B1A002B17939B
:101610001BDDDDE92B231798013210287A4804F1ED
:101620000801206000F37E821798072A0344CDE961
:101630002B23606040F38B82414607982AAA02F070
:1016400075FC002840F092852DAC149B5B1B002B91
:1016500014931BDDDDE92B231498013210286A480E
:1016600004F10801206000F374821498072A0344EF
:10167000CDE92B23606040F38182414607982AAA76
:1016800002F054FC002840F071852DAC2C9B1BF41B
:10169000807F149340F07882C4E900951D442C9516
:1016A0002B9B0133072B2B9300F3B48208341BF0E0
:1016B000040F40F03D85DDE9122315998A42ACBF45
:1016C0009B185B1813932C9B3BB1414607982AAAA1
:1016D00002F02CFC002840F0498500232B93BAF13E
:1016E000000F40F05F850B9E2DACC6E002F8010CA8
:1016F000ACE603F8010B82E60C9B462B04D0452B8D
:101700001CD16E1C022301E02E46032328AA04925A
:1017100025AA039224AACDE9016200930798DDE986
:10172000182300F0C9FF0C9B8146472B19D11BF0F1
:10173000010F05D1289BA3EB090399E62E46E1E7AB
:1017400087190022DDE91801002304F0FFFB00B136
:1017500028973022289B9F42ECD9591C28911A7057
:10176000F8E70C9B8719462BEBD10378302B09D176
:10177000DDE918010022002304F0E8FB10B9C6F1EE
:1017800001062496249B1F44DBE70C9B462B7FF429
:101790007DAE0BF00103002E43EA050325DD7BB38C
:1017A000119BF3181D4466230A9332E013F8016B72
:1017B00005F8016FA1E641B930228DF89A200DF1AC
:1017C0009B02303302F8013BA3E60DF19A02F8E7E1
:1017D000089B9E420DDA089B119A002E03EB02052E
:1017E0000CDCC6F101031D4408E07BB1119B013301
:1017F000D8E71BF0010F1FD0119BF5186723D3E723
:101800003546D0E776630008666300086623012545
:101810000A931BF480630C931FD00027002E0C97B3
:101820007FF78CAE0D9B1B78FF2B07D10C9B169A74
:101830003B4402FB035581E63546DFE7B342F5DA68
:10184000F61A0D9B5B7833B10C9B01330C930D9B07
:1018500001330D93E6E70137E4E70C9F6EE62D2395
:101860008DF88B306EE61BF0200F0AD0139A336888
:101870001399D217C3E900120436DDF84090FFF740
:1018800057BB1BF0100F03D03368139A1A60F3E7AD
:101890001BF0400F03D03368139A1A80ECE71BF457
:1018A000007FF1D03368139A1A70E5E74BF0100B04
:1018B0001BF020031ED0073626F007031A4652F805
:1018C000086B5F680B9200232BF4806B00228DF86D
:1018D0008B20681C00F077842BF080020C9256EA73
:1018E000070240F07684002D00F0DC80012B40F0F0
:1018F000738481E0324652F8046B1BF010070B92A0
:1019000001D01F46DFE71BF0400301D0B6B2DAE793
:101910001BF40077D7D0F6B2F3E7334653F8046BE5
:1019200078220B9347F63003ADF88C30944B0027A8
:101930001D934BF0020B02230A92C7E733460026A1
:1019400053F8049B6F1C0B938DF88B600FD02A46C5
:101950003146484600F0DCFD824600283FF48CAC5E
:10196000B2463746A0EB090514960C96EEE54846BC
:1019700000F0DCFDB24605467EE44BF0100B1BF098
:10198000200309D0073626F007031A4652F8086BE1
:101990005F680B92012399E7324652F8046B1BF003
:1019A00010070B9201D01F46F4E71BF0400301D053
:1019B000B6B2EFE71BF40077ECD0F6B2F3E7714B69
:1019C000FFF74BBB324652F8046B1BF010070B922B
:1019D00002D01F46FFF74EBB1BF0400302D0B6B249
:1019E000FFF748BB1BF400773FF444ABF6B2F0E7D7
:1019F0000A2E77F1000307D23036F6B28DF8576120
:101A00000DF2571900F004BC002308930C9B0DF550
:101A1000AC7A03F4806314930A22002330463946DB
:101A200004F004FB30320AF8012C089A8346013294
:101A30000892149A0B460AF1FF39E2B10D9A0899FF
:101A40001278914217D1FF2915D00A2E77F10002A2
:101A500011D30893169B1B99A9EB03091A46484614
:101A600000F0F5FC0D9B5A78089B1AB10D9A0132D3
:101A70000D92002208920A2E77F10007C0F0C88369
:101A80005E461F46CA46C7E71D9A06F00F03D35CA1
:101A9000360946EA07763F0909F8013D56EA070389
:101AA000F2D1B5E323B91BF0010F01D03026A5E731
:101AB0000DF5AC79ACE30A9B002B00F079838DF82F
:101AC000F43000230B968DF88B30FFF768BB1020A5
:101AD000072A0344CDE92B23606008DD41460798BF
:101AE0002AAA02F023FA002840F040832DA9179B70
:101AF0000C46103B179345E50C465FE541460798B9
:101B00002AAA02F013FA002840F030832DAC67E5D2
:101B1000414607982AAA02F009FA002840F02683D5
:101B20002DAC6DE51020072A0344CDE92B2360601E
:101B300008DD414607982AAA02F0F8F9002840F08B
:101B400015832DA9179B0C46103B179361E50C4696
:101B50007BE51020072A0344CDE92B23606008DDD4
:101B6000414607982AAA02F0E1F9002840F0FE82D7
:101B70002DA9149B0C46103B14936BE50C4685E590
:101B800042630008536300080A9B652B40F33482CC
:101B9000DDE90E010022002304F0D8F9002869D005
:101BA0006E4B236001236360149B01332C932B9BAA
:101BB0000133072B2B9337DC0834249B089A93427C
:101BC00003DB1BF0010F3FF472AD1A9B119A2360E7
:101BD000119B63602C9B13442C932B9B0133072B8D
:101BE0002B932BDC0834089B5D1E002D7FF75FAD27
:101BF00010275B4E102DDDE92B3204F1080103F1B3
:101C00000103266024DC6560072B1544CDE92B35E4
:101C100040F38B82414607982AAA02F087F90028F0
:101C200040F0A4822DAC42E5414607982AAA02F072
:101C30007DF9002840F09A822DACBEE74146079816
:101C40002AAA02F073F9002840F090822DACCAE76E
:101C50001032072BCDE92B32676008DD414607982B
:101C60002AAA02F063F9002840F080822DA90C46D0
:101C7000103DBFE7249B002B74DC384B236001230D
:101C80006360149B01332C932B9B0133072B2B9305
:101C90003DDC08340899249B2C9A0B430BF001017E
:101CA0000B433FF404AD1A9B2360119B1A446360FD
:101CB0002B9B2C920133072B2B9332DC0834249D71
:101CC000002D1BDA23461027254E6D42102DDDE92D
:101CD0002B2104F1080402F101021E602BDC5D607F
:101CE000072A0D44CDE92B2508DD414607982AAA8D
:101CF00002F01CF9002840F039822DAC089B089AAC
:101D000063602C9BC4F8009013442C93C8E44146B4
:101D100007982AAA02F00AF9002840F027822DAC81
:101D2000B8E7414607982AAA02F000F9002840F0D7
:101D30001D822DACC3E71031072ACDE92B215F604E
:101D400008DD414607982AAA02F0F0F8002840F082
:101D50000D822DAC2346103DB8E700BF6463000838
:101D600066630008089B4B440A93089BB342A8BFD4
:101D70003346002B1D460BDDC4E90093149B2B4416
:101D80002C932B9B0133072B2B9300F38280083479
:101D9000002DB4BF3546751B002D19DDDDE92B3252
:101DA0009448102D03F1010304F1080120607ADC4E
:101DB0006560072B1544CDE92B3540F387804146FC
:101DC00007982AAA02F0B2F8002840F0CF812DAC83
:101DD0001BF4806F4E4408D00C9B002B78D1002F51
:101DE00078D10A9B9E4228BF1E46249B089A9342A4
:101DF00002DB1BF0010F0ED01A9B119A2360119B7E
:101E000063602C9B13442C932B9B0133072B2B9348
:101E100000F3DB800834089B249FDF1B0A9B9B1B7D
:101E20009F42A8BF1F46002F2C9B0ADD3B442C93EA
:101E30002B9BC4E900670133072B2B9300F3CF8062
:101E40000834249D089B002FA3EB0505A8BFED1BBC
:101E5000002D7FF72CAC1027664E102DDDE92B32BC
:101E600004F1080103F1010326607FF7CCAE1032C4
:101E7000072BCDE92B32676008DD414607982AAA77
:101E800002F054F8002840F071812DA90C46103D55
:101E9000E3E7414607982AAA02F048F8002840F0F4
:101EA00065812DAC74E71020072B0244CDE92B325D
:101EB000606008DD414607982AAA02F037F800283A
:101EC00040F054812DA90C46103D67E70C467FE792
:101ED000002F4AD0013F1B9B169A2360169B63601C
:101EE0002C9B13442C932B9B0133072B2B9343DC0C
:101EF00008340D9B93F800900A9B9B1B9945A8BF43
:101F00009946B9F1000F2C9B09DD4B442C932B9B78
:101F1000C4E900690133072B2B9337DC08340D9B90
:101F2000B9F1000F1D78A8BFA5EB0905002D18DD3C
:101F3000DDE92B322F48102D03F1010304F10801D4
:101F400020602DDC6560072B1544CDE92B353ADD8B
:101F5000414607982AAA01F0E9FF002840F00681CF
:101F60002DAC0D9B1B781E4436E70D9B013B0D935A
:101F70000C9B013B0C93AEE7414607982AAA01F05F
:101F8000D5FF002840F0F2802DACB2E7414607981B
:101F90002AAA01F0CBFF002840F0E8802DACBEE774
:101FA0001020072B0244CDE92B32606008DD41464A
:101FB00007982AAA01F0BAFF002840F0D7802DA97F
:101FC0000C46103DB4E70C46CBE7414607982AAAD9
:101FD00001F0ACFF002840F0C9802DAC1BE7414662
:101FE00007982AAA01F0A2FF002840F0BF802DAC7C
:101FF00027E700BF666300080899149B2B9A012904
:1020000003F1010302F1010204F1080502DC1BF0F7
:10201000010F7FD00121072ACDE92B23C4F80090BE
:10202000616008DD414607982AAA01F07FFF002879
:1020300040F09C802DAD1A9B119A2B60119B6B6018
:102040002C9B13442C932B9B0133072B2B9332DCBB
:102050000835089B0022DDE90E01DDE92B765C1EC8
:10206000002303F073FF00282ED109F10103C5E915
:102070000034089B0137013E1E44072FCDE92B7623
:1020800051DD414607982AAA01F050FF00286DD182
:102090002DAD26AB2B601C9B1C9A6B602C9B1344B4
:1020A0002C932B9B0133072B2B933FF7B3AD05F1FB
:1020B0000804FFF7FCBA414607982AAA01F036FF48
:1020C000002853D12DADC4E7089B012BE1DD10277B
:1020D000564E102CDDE92B3205F1080103F1010306
:1020E0002E6007DC6C60072B1444CDE92B34C8DC70
:1020F0000D46CEE71032072BCDE92B326F6006DD9F
:10210000414607982AAA01F011FF78BB2DA90D4678
:10211000103CDEE70121072ACDE92B23C4F800900B
:102120006160B6DDADE70835B3E70C46FFF7BFBA2F
:10213000129B159A9D1A002D7FF7BDAA10273C4EC1
:10214000102DDDE92B32266003F1010318DC2A444F
:10215000072BCDE92B3265607FF7ADAA4146079882
:102160002AAA01F0E3FE00283FF4A5AABAF1000F65
:102170003FF4B5A85146079801F0A0F8FFF7AFB8B3
:102180001032072BCDE92B32676002DC0834103D9A
:10219000D6E7414607982AAA01F0C8FE0028E5D1F3
:1021A0002DACF4E75146079801F088F8FFF79BBA89
:1021B0002C9B002B3FF493A8414607982AAA01F0D4
:1021C000B5FEFFF78CB856EA0702CDF830B03FF401
:1021D0008DAB012B3FF40CAC022B0DF5AC793FF429
:1021E00053AC06F00703F60846EA4776FF0830339B
:1021F00056EA07014A4609F8013DF2D10C99C90790
:1022000006D5302B04D0302309F8013CA2F1020995
:102210004FF0000A56ABDDF830B01495A3EB09057A
:1022200057465646CDF830A0FFF790B966630008D0
:1022300076630008002310B50446C0E90033C0E906
:102240000433836081814366C28183611946082219
:102250005C3000F0F4F80D4BE46123620C4B6362D8
:102260000C4BA3620C4BE3620C4B9C4206D003F177
:102270006802944202D0D0339C4205D104F1580048
:10228000BDE8104000F040B910BD00BFB923000800
:10229000DB2300081324000837240008C4060020AC
:1022A000024A0349034800F069B800BF3801002022
:1022B000274000081800002041680C4B10B59942D7
:1022C000044601D001F0AFFEA168094B994202D04B
:1022D000204601F0A8FEE168064B994204D0204652
:1022E000BDE8104001F09FBE10BD00BFC406002035
:1022F0002C0700209407002010B50B4B0B4C0C4A08
:1023000020461A6004210022FFF794FF04F16800C0
:1023100001220921FFF78EFF04F1D0000222BDE85F
:1023200010401221FFF786BFFC070020C4060020E2
:10233000A1220008014800F0E9B800BF050800200C
:10234000014800F0E4B800BF0508002010B50446BD
:10235000FFF7F0FF636B1BB1BDE81040FFF7F0BF64
:10236000044B6363044B1B68002BF5D1FFF7C4FFDC
:10237000F2E700BFB9220008FC0700202DE9F8436E
:102380000746884614460026D4E90195B9F10109AB
:1023900005D52468002CF7D13046BDE8F883AB8919
:1023A000012B07D9B5F90E30013303D02946384641
:1023B000C04706436835E9E710B50C46B1F90E1081
:1023C00000F07EF80028ABBF236DA3891B1823F40F
:1023D0008053ACBF2365A38110BD2DE9F0411F469A
:1023E0008B890546DB050C46164605D502230022DF
:1023F000B1F90E1000F052F8A389324623F480534D
:10240000A38128463B46B4F90E10BDE8F04100F028
:1024100069B810B50C46B1F90E1000F03FF8431C36
:10242000A38915BF206523F4805343F48053A3810F
:1024300018BFA38110BDB1F90E1000F01FB80346FC
:102440000244934200D1704703F8011BF9E70346A9
:1024500010B5013932B111F8014F013A03F8014BBF
:10246000002CF7D100211A44934200D110BD03F88B
:10247000011BF9E7004870474406002038B50023E7
:10248000054D044608462B60FEF736FC431C02D17E
:102490002B6803B1236038BD0008002038B504461E
:1024A000084611460022054D2A601A46FEF748FCF0
:1024B000431C02D12B6803B1236038BD0008002003
:1024C00038B50446084611460022054D2A601A46D2
:1024D000FEF742FC431C02D12B6803B1236038BDD8
:1024E0000008002038B50446084611460022054D74
:1024F0002A601A46FEF73CFC431C02D12B6803B14C
:10250000236038BD0008002070477047704770474F
:10251000034610B5C9B202449342184601D10020C7
:1025200003E0047801338C42F6D110BD034613F862
:10253000012B002AFBD1181A01387047F8B517464D
:1025400000223A60144A21F00046964204460D46A5
:102550000B461ED8024632431BD0104A0A4052B9DD
:1025600000220F4B03F08AFA6FF0350204460B4647
:1025700021F000463A603A68361523F0FF43A6F290
:10258000FE3623F4E003324443F07F553A6045F4CD
:10259000001520462946F8BDFFFFEF7F0000F07FC1
:1025A000000050432DE9F74F03690C690746A34229
:1025B0007EDB013CA30000F1140501F11408009337
:1025C00005EB8403019358F8243055F82420013397
:1025D0009A42B2FBF3F608EB84092ED34FF0000ABF
:1025E000C446AE46D3465CF8043B98B206FB00A056
:1025F0001B0C020C06FB0323DEF8002080B292B213
:10260000121A5A44DEF800004FEA134A9BB2C3EB99
:10261000224303EB104392B242EA0342E1454FEA00
:10262000234B4EF8042BDED2009BEB582BB9019BB9
:10263000043B9D421A462FD33C61384601F06EFBA5
:10264000002825DB2946002058F8042BD1F800C0CB
:102650001FFA82FE1FFA8CF3A3EB0E030344120C45
:10266000C2EB234202EB1C429BB243EA0243C14548
:102670004FEA224041F8043BE6D255F8242005EB0E
:10268000840322B9043B9D421A460BD33C610136B8
:10269000304603B0BDE8F08F1268043B002ACBD16E
:1026A000013CC6E71268043B002AEFD1013CEAE78F
:1026B0000020EEE7000000002DE9F04F14461D4613
:1026C000816B97B08346CDE90245239E49B1012332
:1026D000C26B93408B604A6001F01BF90023CBF87A
:1026E00038302B1EAFBF0023012223F00043039399
:1026F000A8BF3360DDF80C80974BB8BF326033EA77
:10270000080314D142F20F73229A1360C8F3130323
:10271000234300F04D85249BDFF840A21BB10AF152
:102720000303249A1360504617B0BDE8F08FDDE92B
:102730000223CDE90C23DDE90C010022002303F084
:1027400005FC074650B10123229A1360249B13B164
:10275000834B249A1360DFF80CA2E4E714AB0193D7
:1027600015AB00935846DDE90C2301F087FBC8F355
:102770000A568146002E77D0DDE90C010D9BA6F2AA
:10278000FF36C3F3130343F07F5343F44013129710
:1027900019460022744B02F0B9FF69A3D3E9002364
:1027A00003F06CF968A3D3E9002302F0B1FF0446FB
:1027B00030460D4603F0F8F865A3D3E9002303F093
:1027C0005DF902460B462046294602F0A1FF044669
:1027D0000D4603F003FC002207460023204629464D
:1027E00003F0BEFB40B1384603F0DEF822462B462C
:1027F00003F0ACFB00B9013F162F53D8DDE90C0103
:102800005A4B03EBC703D3E9002303F0A9FB0028CD
:102810004AD00023013F0F93149B9B1B5A1E46BFB7
:10282000C3F1010800234FF00008099248BF099343
:10283000002F3BDB099B0E973B44099300230A932F
:10284000209B092B67D8052BC4BF043B2093209BFA
:10285000C8BF0024A3F10203D8BF0124032B65D80D
:10286000DFE803F02B383657DDE914631E4406F227
:102870003243202BC1BFC3F1400308FA03F806F22C
:10288000124324FA03F3D6BFC3F1200348EA03003E
:1028900004FA03F003F078F80122A1F1F873013E85
:1028A000129275E70123B6E70F90B5E77B420A93D2
:1028B0000023A8EB07080E93C2E700230B93219B8C
:1028C000002B36DC01231A46CDE9073321920BE0B9
:1028D0000123F3E700230B93219BFB18089301339B
:1028E000012B0793B8BF01230021042202F1140039
:1028F000984222D95846CBF83C1000F0E5FF8246BA
:10290000002839D1024640F2AF11194B194801F0A5
:10291000D3FC0123DFE7012400230B9420934FF025
:10292000FF330022CDE907331223CFE701230B93B6
:10293000F5E7219BCDE90733D6E701315200D5E712
:1029400061436F63A787D23FB3C8608B288AC63FB5
:10295000FB799F501344D33F0000F07F8F63000842
:1029600065630008646300080000F83F9064000895
:1029700093630008A4630008079BCBF838000E2B74
:1029800000F2A480002C00F0A180002F33DD864BE4
:1029900007F00F0203EBC203F805D3E90034CDE9D9
:1029A00004344FEA271416D5DDE90C017F4B0326CA
:1029B000D3E9082303F08CF9CDE9020104F00F04F8
:1029C0007A4D54B9DDE90423DDE9020103F080F911
:1029D000CDE9020128E00226F2E7E10708D5DDE9AA
:1029E0000401D5E9002303F049F8CDE904010136DB
:1029F00064100835E5E700F0D280DDE90C017C4287
:102A0000694B04F00F0203EBC203D3E9002303F088
:102A100035F802260023CDE90201644D2411002C73
:102A200040F0B280002BD3D1DDE902450F9B002B93
:102A300000F0B7800022204629465D4B03F090FA53
:102A4000002800F0AE80079B002B00F0AA80089BB6
:102A5000002B37DD7B1E2046049300222946554B70
:102A600003F00CF8CDE90201089C0136304602F073
:102A70009BFFDDE9022303F001F800224E4B02F038
:102A800047FE0546A1F15076002C40F09980DDE923
:102A900002010022494B02F039FE02460B46CDE905
:102AA00002232A46334603F079FA002840F08D824B
:102AB000DDE902012A4606F1004303F051FA00283D
:102AC00040F02681DDE90C34CDE90234159B002B62
:102AD000C0F262810E2F00F35F81334B03EBC7031B
:102AE000D3E90034CDE90434219B002B03DA079BA2
:102AF000002B40F3FF80DDE902455646DDE9042363
:102B00002046294603F0E4F803F068FA804602F014
:102B10004BFFDDE9042302F0B1FF02460B462046DD
:102B2000294602F0F3FD08F13004079D06F8014B39
:102B3000A6EB0A04A54202460B4640F0158102F0BE
:102B4000E7FDDDE9042304460D4603F027FA0028DB
:102B500040F0F780DDE904232046294603F0F6F92A
:102B600018B118F0010F40F0EC804946584600F0CB
:102B7000D0FE00233370229B01371F60249B002B63
:102B80003FF4D1AD1E60CEE5E20705D5D5E90023BF
:102B900002F074FF01230136641008353FE7022676
:102BA00042E7079C049761E79064000868640008A6
:102BB0000000F03F0000244000001C4000001440D2
:102BC000704B0B9903EBC40353E9022354440029CF
:102BD00045D000206C4903F07BF833462A4602F0CA
:102BE00095FD5646CDE91001DDE9020103F0F6F945
:102BF000054602F0D9FE02460B46DDE9020102F06D
:102C000085FD02460B463035CDE90223DDE9102370
:102C100006F8015B03F0A4F9002863D1DDE9022383
:102C200000205A4902F072FDDDE9102303F098F903
:102C3000002840F08780A6423FF444AFDDE9100150
:102C40000022534B02F01AFF0022CDE91001DDE90A
:102C500002014F4B02F012FFCDE90201C4E73146F9
:102C6000284602F00BFF5646CDE910011394DDE92A
:102C7000020103F0B3F9054602F096FE02460B4648
:102C8000DDE9020102F042FD02460B46303506F84E
:102C9000015BA642CDE902234FF0000224D1DDE919
:102CA0001001394B02F034FD02460B46DDE902010A
:102CB00003F074F9002845D1DDE9102300203249E2
:102CC00002F024FD02460B46DDE9020103F048F95B
:102CD00000283FF4F7AE139E731E139316F8013CC1
:102CE000302BF8D0049F40E7294B02F0C7FECDE916
:102CF0000201BCE70CD1DDE904010022254B02F002
:102D0000BDFEDDE9022303F03FF9002800F05B81FE
:102D100000242546219B5646DB4304930027214689
:102D2000584600F0F6FD002DDCD02FB1AF4203D0A5
:102D30003946584600F0EDFD2946584600F0E9FDB9
:102D4000D0E7049733461E4613F8012D392A07D1E0
:102D50009A45F8D1049A0132049230228AF8002070
:102D60001A7801321A70BDE70022094B02F086FE84
:102D70000022002304460D4603F0E8F800283FF443
:102D8000BDAEF2E6906400080000E03F0000F03FB6
:102D900000002440000014400B9A002A00F0DB8061
:102DA000209A012A00F3BF80129A002A00F0B7800F
:102DB00003F2334346460A9C099A01211A445846B5
:102DC0009844099200F040FE05465EB1099B002B35
:102DD00008DDB342A8BF3346099AA8EB0308F61AE8
:102DE000D31A09930A9BF3B10B9B002B00F0B78019
:102DF0008CB129462246584600F0E4FE4A46014678
:102E00000546584600F036FE49460490584600F004
:102E100080FD049B99460A9B1A1B04D049465846DC
:102E200000F0D0FE81460121584600F00DFE0E9BB9
:102E30000446002B00F0C6811A460146584600F0B1
:102E4000C1FE209B0446012B00F38F80029B002BC8
:102E500040F08780039BC3F31303002B40F0838073
:102E6000039B23F000431B0D1B052BB1099B08F1AD
:102E700001080133099301230A930E9B002B00F0F4
:102E8000A781236904EB8303186900F091FDC0F169
:102E90002000099B184410F01F0071D0C0F12003DE
:102EA000042B65DD099BC0F11C00034480440644EB
:102EB0000993B8F1000F05DD49464246584600F037
:102EC000C1FE8146099B002B05DD21461A46584666
:102ED00000F0B8FE04460F9B002B53D02146484615
:102EE00000F01CFF00284DDA7B1E494604930A229D
:102EF0000023584600F016FD0B9B8146002B00F086
:102F00006981002329460A22584600F00BFD089BE0
:102F10000546002B61DC209B022B3BDC5DE0149B13
:102F2000C3F1360346E7079B5C1E0A9BA342BFBF63
:102F30000A9B0E9AE31AD218A8BF1C1B079BBEBFA0
:102F40000A940E920024002BB5BFA8EB0306464658
:102F50000023079B30E746460A9C0B9D35E70A9AFB
:102F60005CE7002388E7029B86E700230A9388E753
:102F70009FD0099A1C331A4498441E44099298E73A
:102F80000346F6E7079B0497002B20DC0893209B61
:102F9000022B1EDD089B002B7FF4BCAE21460522D0
:102FA000584600F0BFFC01460446484600F0B6FE15
:102FB00000287FF7AFAE3123564606F8013B049B4D
:102FC00001330493AAE6079C04972546F3E7079B81
:102FD00008930B9B002B00F00181002E05DD294694
:102FE0003246584600F02EFE05460A9B002B59D06B
:102FF0005846696800F068FC064620B9024640F26F
:10300000EF21814B82E42A6905F10C010232920022
:103010000C3001F043F901223146584600F012FE0F
:103020002F4605460AF101030793089B53440B936F
:10303000029B03F001030A93079B2146013B48468C
:103040000293FFF7AFFA3946089000F1300848467E
:1030500000F064FE2A4609902146584600F07AFEA8
:10306000C268064602BB0146484600F057FE0246CB
:10307000314658460C9200F04CFC209B0C9A079E5F
:1030800043EA02010A9B194310D1B8F1390F29D044
:10309000099B002B02DD089B03F13108029B83F89A
:1030A00000803CE62846BBE70122E1E7099B002BB4
:1030B00004DB20990B430A990B4320D1002AEDDD54
:1030C00049460122584600F0BDFD2146814600F0E8
:1030D00025FE002803DCE1D118F0010FDED0B8F1A5
:1030E000390FD8D13923029A137033461E4616F889
:1030F000012C013B392A52D001321A700FE6002A06
:1031000007DDB8F1390FEDD0029A08F10103137011
:1031100005E6079B079A03F8018C0B9B934228D086
:10312000494600230A22584600F0FCFBAF42814684
:103130004FF000034FF00A023946584607D100F01D
:10314000F1FB07460546079B0133079374E700F040
:10315000E9FB2946074600230A22584600F0E2FB15
:103160000546F0E7089B0027002BCCBF1E46012632
:10317000564449460122584600F064FD21468146E6
:1031800000F0CCFD0028B0DC02D118F0010FACD16A
:1031900033461E4613F8012D302AFAD0BFE59A4572
:1031A000A4D1049B0133049331238AF80030B6E59F
:1031B000249BDFF858A0002B3FF4B5AA0AF10803BE
:1031C000FFF7AFBA209B012B7FF740AE0E9B0A930F
:1031D00001205EE6089B002B7FF7D9AE56462146BC
:1031E0004846FFF7DFF900F13008089B06F8018B2D
:1031F000A6EB0A029342B5DD494600230A2258464F
:1032000000F090FB8146EAE79363000886630008BC
:103210002DE9F84306460820894601F033F8804638
:10322000234F304600F044FBBB685D6825F0030582
:10323000A5F11104A4EB09044444B4FBF8F4013CE7
:1032400008FB04F4A04505DD304600F037FB002004
:10325000BDE8F8830021304601F004F8BB682B4438
:103260009842F1D13046614200F0FCFF013010D1AC
:103270000021304600F0F6FFBA68831A0F2BE3DD19
:103280000C4943F0010309685360401A0A49086079
:10329000DAE7BB68084A2D1B45F001055D6013683D
:1032A00030461B1B136000F009FB0120D0E700BF74
:1032B0004C0100204401002008080020F8B5044615
:1032C0000F46002900F0B18000F0F2FA57F8042C04
:1032D000564D22F00100A7F1080303EB000CA9688A
:1032E000DCF80460614526F0030602F001021BD100
:1032F00006443AB957F8082C9B1A1644D3E902122F
:10330000CA60916046F001025A60AB60484B1B688E
:10331000B34204D8474B20461968FFF779FF20468F
:10332000BDE8F84000F0CABACCF80460002A38D1F1
:1033300057F8081C05F108075B1A08449968B94258
:1033400031D0DF68CF60B9600CEB06014968C9076E
:103350000BD4DCF8081030443ABB374EB14224D1CC
:103360000122C5E90433C3E9021140F001015960AB
:103370001850002AD3D1B0F5007F1BD20121C2081A
:1033800040098140686801320143696055F83200A4
:1033900005EBC2010839C3E9020145F83230C360C8
:1033A000BDE70022D0E70122CEE7DCF80C60CE605A
:1033B000B160DAE7B0F5206F4FEA502214D28209EB
:1033C0003832511C55F8311005EBC2068E4225D11A
:1033D0000120921000FA02F2686802436A60C3E9B1
:1033E0000216B360CB609AE7142A01D85B32E8E793
:1033F000542A02D8020B6E32E3E7B2F5AA7F02D854
:10340000C20B7732DDE740F254518A4296BF820CFC
:103410007E227C32D5E789688E4204D04A6822F049
:1034200003028242F7D8CE68D9E7F8BD4C010020EC
:1034300048010020380800205401002001F10B034E
:10344000162B2DE9F74F054606D933F0070704D5AB
:103450000C232B600024A1E11027B942F8D828469C
:1034600000F026FAB7F5FC7FAE4E37D207F108021E
:1034700032445468A2F108018C424FEAD70302D1CA
:10348000D468A24210D0D4E902126368CA6023F063
:103490000303916023445A6842F001025A602846AF
:1034A00000F00CFA083479E1023334699E498C4209
:1034B00077D0626822F0030CACEB07000F2848DDE0
:1034C000E21940F0010347F001076760C6E90422F2
:1034D000C2E90211536044F80C00E0E77B0A2AD0ED
:1034E000042B12D8BB0938335A1C06EBC2025468AD
:1034F000A2F1080C644506D0626822F00302D01BDA
:103500000F281CDD013B0133CFE7142B01D85B33BF
:10351000EAE7542B02D83B0B6E33E5E7B3F5AA7FFD
:1035200002D8FB0B7733DFE740F25452934204D8C2
:10353000BB0C7C33D8E73F23D6E77E23D4E70028B3
:10354000E16804DBA368D9608B60A318A3E70C468D
:10355000D0E70028C6E9041107DBA444DCF80430F6
:1035600043F00103CCF8043099E7BCF5007F7068A4
:1035700080F093804FEADC024FEA5C1E4FF0010CB2
:103580000CFA0EFC4CEA0000013256F832C07060B2
:1035900006EBC2000838C4E902C046F83240CCF855
:1035A0000C400122981082407068904226D310424D
:1035B00006D123F003035200104203F10403FAD0B2
:1035C00006EBC308C1469E46D9F80C404C4540F076
:1035D000B7800EF1010E1EF0030F09F10809F3D1B7
:1035E000980740F0E180736823EA02037360706813
:1035F0005200904202D3002A40F0E280D6F808A0A0
:10360000DAF8043023F00309B94504D3A9EB070223
:103610000F2A00F34081454B082019680AEB090B7B
:1036200010313944019100F02DFE414A019913688F
:10363000804601331FBF01F1FF3109184342194091
:103640002846019100F00EFE421C044600F0F68070
:1036500083450199364A02D9B24540F0EF80354B97
:10366000A345186808F1FF3C0844186040F0AA80A0
:103670001BEA0C0F40F0A680B268494441F00101FA
:1036800051602D4A1B6811688B4288BF13602B4A1A
:1036900011688B4288BF1360D0E0BCF5206F4FEA01
:1036A0005C2218D24FEA9C12383202F1010E56F811
:1036B0003EE006EBC208F0452BD14FF0010C921012
:1036C0000CFA02F202437260C4E902E8C8F808404A
:1036D000CEF80C4065E7142A01D85B32E5E7542A9E
:1036E00003D84FEA1C326E32DFE7B2F5AA7F03D867
:1036F0004FEADC327732D8E740F2545E724596BF2B
:103700004FEA9C427E227C32CFE7DEF808E0F045AB
:1037100005D0DEF8042022F003026245F5D8DEF879
:103720000C80D1E74C010020540100203808002013
:103730004401002008080020340800203008002040
:103740006068D4F80CC020F00300A0EB070ABAF1BF
:103750000F0F12DDA368E21947F001076760C3F895
:103760000CC0CCF808304AF00103C6E90422C2E9D3
:103770000211536044F800A091E6BAF1000F11DB8A
:103780002044436843F00103436054F8083F28464F
:10379000C3F80CC0CCF8083000F090F8204603B015
:1037A000BDE8F08F644611E758F80809013B404531
:1037B0003FF416AF1BE7043352001042FBD0FFE684
:1037C0007346FAE7D2F800E0BEF1FF3F1BBFA4EB5F
:1037D0000B0B0BEB000214601A6014F0070B0EBF0A
:1037E0005846CBF108002418621802EA0C01804404
:1037F000A8EB010808EA0C0841462846019200F0AF
:1038000031FD431C019A294B07D1BBF1000F23D096
:103810004FF00008ABF1080010441A68001B404448
:10382000424440F00100B245B4601A6060603FF469
:1038300028AFB9F10F0F12D801236360B3685B683A
:1038400023F00303BB42A3EB070201D30F2A22DCC0
:10385000284600F033F8FDE51046D846DDE705219F
:10386000DAF80420A9F10C0929F0070902F0010295
:1038700042EA0902CAF80420B9F10F0F0AEB090263
:10388000C2E901117FF6FDAE28460AF10801FFF7F3
:1038900015FD064BF5E6B46847F0010342F001025E
:1038A00027446360B7607A60F9E500BF080800202C
:1038B0000148FEF72BBE00BF040800200148FEF7B8
:1038C00026BE00BF04080020436C70B505460C46B8
:1038D0007BB16B6C53F82400A0B9012101FA04F606
:1038E000721D2846920000F005FD48B1C0E901466E
:1038F0000BE02122042100F0FDFC68640028E8D1DF
:10390000002070BD026843F824200023C0E903337F
:10391000F7E731B1436C4A6853F82200086043F876
:10392000221070472DE9F04107460C461E46002044
:103930000D6901F1140CDCF80030013099B202FB82
:1039400001611E0C0B0C02FB063389B201EB034133
:1039500085424FEA13464CF8041BECDC0EB3A36817
:10396000AB4219DC616838460131FFF7ADFF804694
:1039700028B90246BA210C4B0C4800F09DFC226984
:1039800004F10C01023292000C3000F087FC214659
:103990003846FFF7BEFF444604EB850301355E6100
:1039A00025612046BDE8F08193630008FC630008B0
:1039B0000346B0F5803F3ABF030410200020B3F166
:1039C000807F3CBF1B020830B3F1805F3CBF1B010E
:1039D0000430B3F1804F3CBF9B000230002B05DB6D
:1039E00013F0804F00F1010008BF202070470368EA
:1039F000024613F007000BD0D90721D4980749BF1E
:103A00005B089B08012013605CBF022013607047B5
:103A100099B209B910201B0CD9B209B908301B0A98
:103A2000190704BF1B090430990704BF9B08023023
:103A3000D90703D45B0800F1010003D0136070477D
:103A4000002070472020704710B50C460121FFF779
:103A50003BFF024628B940F24511044B044800F0F0
:103A60002BFC01234461036110BD00BF9363000878
:103A7000FC6300082DE9F04F14460A6923690F46DC
:103A80009A42A2BF23460C461F46D4F810A0D7F88E
:103A90001090A36861680AEB0906B34285B0B8BF0D
:103AA0000131FFF711FF30B902464FF4B171434BBA
:103AB000434800F001FC00F114052B46002205EB01
:103AC0008608434521D307F1140104F1140202EBE7
:103AD0008A0201EB89030293131B153B23F00303B6
:103AE000043304F11507BA4238BF04230193029B43
:103AF00003918B420CD8002E03DD58F8043D002BB7
:103B00005AD0066105B0BDE8F08F43F8042BD8E722
:103B1000B1F800A0BAF1000F23D0A9464FF0000C75
:103B200004F1140E5EF8047BD9F800301FFA87FB0D
:103B30009BB20AFB0B336344D9F800C03F0C4FEA39
:103B40001C4C0AFB07C707EB13479BB243EA07432A
:103B500072454FEA174C49F8043BE3D8019B45F8FE
:103B600003C0039B0431B3F80290B9F1000F21D0D8
:103B7000AE464FF0000A2B6804F1140CBCF800B0FC
:103B8000BEF802709BB209FB0B77574443EA074328
:103B90004EF8043B5CF8043B4FEA134ABEF8003091
:103BA000624509FB0A3303EB17434FEA134AE5D892
:103BB000019FEB5104359AE7013E9CE793630008AF
:103BC000FC6300082DE9F843154612F0030207468E
:103BD0000E4607D01A4C013A002354F82220FFF772
:103BE000A1FE0646AD1027D03C6C44B940F27121CD
:103BF0003846FFF729FF00230446386403604FF07E
:103C00000009EB070AD5314622463846FFF732FF56
:103C1000804631463846FFF77CFE46466D100BD095
:103C2000206838B9224621463846FFF723FF206036
:103C3000C0F800900446E4E73046BDE8F88300BFD2
:103C4000586400082DE9F0470C4607469146236961
:103C5000496803EB6218A3684FEA621A08F101068B
:103C6000B3420BDB3846FFF72FFE054648B9024644
:103C70004FF4EF71274B284800F01EFB01315B0029
:103C8000EEE7002300F1140100F11002184653453D
:103C900033DB20692AEAEA7A04F1140319F01F09D8
:103CA00001EB8A0103EB800C2BD08A460022C9F17C
:103CB000200E186800FA09F010434AF8040B53F874
:103CC000042B9C4522FA0EF2F3D8ACEB0403153B0F
:103CD00023F00303043304F11500844538BF0423A3
:103CE000CA500AB108F10206013E384621462E614B
:103CF000FFF70FFE2846BDE8F08742F8040F0133B6
:103D0000C5E7043953F8042B9C4541F8042FF9D832
:103D1000EAE700BF93630008FC63000803460A69F2
:103D2000006930B5801A0ED11433143103EB8204CC
:103D300001EB820154F8045D51F8042D954203D043
:103D400005D24FF0FF3030BDA342F3D3FBE7012093
:103D5000F9E700002DE9F74F894606461146484627
:103D60001446FFF7DBFF051E12D129463046FFF748
:103D7000ABFD024628B940F237213E4B3E4800F0E9
:103D80009BFA0123C0E90435104603B0BDE8F08F6B
:103D9000BCBF4B46A1463046D9F80410BABF1C46FA
:103DA00001250025FFF790FD024618B940F2452194
:103DB000304BE3E700F1140BD9F8107009F1100350
:103DC000C5604FF0000C09F11405D946266904F1CD
:103DD000140E05EB87080EEB86060193019B5EF837
:103DE000040B53F804AF81B201931FFA8AF35B1AF4
:103DF000000C6344C0EB1A4000EB23409BB243EA43
:103E0000004376454FEA204C49F8043BE6D8331B83
:103E1000153B23F0030315340433A64238BF0423B3
:103E20001D445B441E462C4644450ED308F1030155
:103E3000491B21F00301033DA84538BF00210B4475
:103E400053F8041D99B117619EE7E64654F8041B28
:103E50001FFA81FCF444080C714400EB2C4089B239
:103E600041EA00414FEA204C46F8041BDCE7013FE1
:103E7000E6E700BF93630008FC6300082DE9734385
:103E8000012190469946089EFFF71EFD044630B971
:103E9000024640F20F31234B234800F00DFAC9F3DC
:103EA0000A55C9F313030DB143F480130193B8F11C
:103EB000000324D068460093FFF799FDDDE9001266
:103EC000D8B1C0F1200302FA03F30B43C24063618F
:103ED0000192019B002B0CBF01220222A3612261EF
:103EE000ADB1A5F2334505443560C0F13500099BFD
:103EF0001860204602B0BDE870836161E9E701A85F
:103F0000FFF775FD019B012263612030E7E7A0F216
:103F1000324004EB820330601869FFF749FDC0EBC3
:103F20004210E4E793630008FC6300082DE9F74FB3
:103F300093680C461746D2F800B00190002B57D179
:103F4000002000237B6003B0BDE8F08FDBE900A810
:103F50000BF1080BA6682068B8F1000FF6D0B04549
:103F60002ED3B4F90C2012F4906F29D02169656921
:103F7000A0EB010905EB450505EBD57509F101003D
:103F80006D104044854238BF0546530534D5294657
:103F90000198FFF753FA0646002838D04A462169AF
:103FA00000F07CF9A28922F4906242F08002A281A2
:103FB00026614E44266046466561A5EB0905A5606D
:103FC000464528BF464651463246206800F029F94A
:103FD000A268C244921BA260226832442260BA687E
:103FE000A2EB0803BB60002BAAD04FF00008B1E79A
:103FF0004FF0000AD046ADE72A46019800F0C2F91A
:1040000006460028D4D121690198FFF757F90C23FF
:10401000019A4FF0FF301360A38943F04003A3815E
:104020000023BB608DE770B505460C46B1B118B1F1
:10403000436B0BB9FEF78AF9636EDE0705D4A389DB
:10404000980502D4A06DFEF761FAB4F90C3043B9BB
:10405000636ED90702D4A06DFEF759FA00263046E8
:1040600070BD2146284600F033F8E36A064633B1B6
:104070002846E16998470028B8BF4FF0FF36A3896A
:104080001A0603D528462169FFF718F9216B41B1BB
:1040900004F14003994202D02846FFF70FF90023AC
:1040A0002363616C21B12846FFF708F9002363649C
:1040B000FEF740F90023A381636EDB0702D4A06DF5
:1040C000FEF725FAA06DFEF720FAFEF739F9C6E7EC
:1040D000F8B50546B1F90C000C46060757D440F474
:1040E00000638B814B68002B02DCCB6B002B4CDD1B
:1040F000A66A002E49D0002310F480522F68E1698F
:104100002B6034D0226DA389590705D56368D21A74
:10411000236B0BB1E36BD21A00232846A66AE16930
:10412000B047431C06D12A681D2A47D8294B1341A2
:10413000DE0743D4B4F90C3023F40062A2810022DC
:1041400062602269D904226004D5421C01D12B6827
:1041500003B92065216B2F60B9B104F14003994286
:1041600002D02846FFF7AAF8002323630DE00123BD
:104170002846B0470246501CC5D12B68002BC2D040
:104180001D2B01D0162B19D12F6000201DE00F69C7
:10419000002FFAD0830718BF00230E6808BF4B69B1
:1041A000F61B0F608B60002EEFDD33463A46284643
:1041B000E169D4F824C0E047002807DC4FF0FF3065
:1041C000B4F90C3043F04003A381F8BD0744361A1C
:1041D000E9E700BFFEFFBFDF38B50C46054618B162
:1041E000436B0BB9FEF7B2F8B4F90C00B8B1636ECB
:1041F000DB0704D4810502D4A06DFEF787F92846B9
:104200002146FFF765FF636E0546DA0705D4A389EB
:104210009B0502D4A06DFEF77AF9284638BD054605
:10422000FBE7884210B501EB020402D98442234621
:1042300007D8431EA14208D011F8012B03F8012F23
:10424000F8E7014602448A4200D110BD13F8014D3F
:1042500002F8014DF7E70000014B93F82801704781
:104260005405002038B50023054D044608462B6050
:10427000FCF724FD431C02D12B6803B1236038BD39
:1042800000080020082808B506D001F04FF91623D1
:1042900003604FF0FF3008BD8020FCE70A449142E4
:1042A00000F1FF3300D1704710B511F8014B914276
:1042B00003F8014FF9D110BD1FB514461A46094B3A
:1042C00005461B68D86854B9074B1C46CDE9013434
:1042D00000912B46054900F00FFAFCF755FD044B01
:1042E000F4E700BF140000209D6500086F6500081A
:1042F0006265000838B5A1FB021535B9FFF79EF8D5
:10430000044638B90024204638BD01F00FF90C23CB
:104310000360F7E750F8042C22F00302043A242A41
:1043200019D8132A15D91B2AC0E9005506D800F15F
:1043300008030022C3E900229A60E4E7242AC0E9C6
:10434000025511BF00F11003056100F1180345612A
:10435000EFE70346EDE72946FEF771F8D3E782B0B1
:1043600001B901A942B14BB113780B601278101E4C
:1043700018BF012002B070471046FBE76FF0010044
:10438000F8E700002DE9F74F824693460C4629B91D
:10439000114603B0BDE8F04FFFF750B8FFF788FAB9
:1043A0000BF10B0854F8045CB8F1160FA4F10809DE
:1043B00025F0030608D938F0070807D50C23CAF8FA
:1043C00000304FF0000B32E04FF01008C345F5D835
:1043D000464580F27981A04B09EB0601D3F808C06D
:1043E00048688C4505D020F001020A445268D7077E
:1043F00049D420F003008C4506EB00071BD108F1DF
:104400001002BA4241DCA7EB080709EB080247F0AB
:1044100001079A60576054F8043C504603F00103CA
:1044200043EA080344F8043CFFF748FAA346584619
:1044300003B0BDE8F08FB84527DCD1E90223D36093
:104440009A60D9F80430A7EB08000F2803F00103A5
:1044500009EB070240F23A8109EB080148EA03033D
:1044600040F00100C9F8043048605368504643F0FA
:10447000010353600831FEF721FF5046FFF71EFA93
:1044800009F1080BD3E700200146EA0700F1CA80D2
:1044900054F8085CA9EB05056A6822F0030232446F
:1044A0000192002900F088808C4500EB02074AD178
:1044B00008F11002BA427FDCAB46EA685BF8081FDD
:1044C000CA609160321F242A37D8132A33D9216851
:1044D0001B2AA9606168E9601AD8083405F1100246
:1044E0002168116061685160A1689160A7EB0807BD
:1044F00005EB080247F001079A6057606B6803F00C
:10450000010343EA08036B605046FFF7D7F98EE7D3
:10451000A168242A2961E16818BF05F118026961C0
:1045200009BF22691034AA61616902BF05F1200246
:10453000E9611834D4E75A46D2E721465846FFF7D6
:1045400070FE454BD2E7B84536DCD1E90223284658
:10455000D3609A6050F8082FEB68D3609A60321FDE
:10456000242A25D8132A08D923681B2AAB6063683C
:10457000EB600AD8083405F1100023680360636813
:104580004360A3688360A9465BE7A368242A2B6184
:10459000E36818BF05F118006B6109BF2369103487
:1045A000AB61636902BF05F12000EB611834E4E7F9
:1045B0002146FFF736FEE6E7019B984532DC2846A8
:1045C000EB6850F8082FD3609A60321F242A25D850
:1045D000132A08D923681B2AAB606368EB600AD8EA
:1045E000083405F110002368036063684360A36822
:1045F0008360019FC7E7A368242A2B61E36818BF83
:1046000005F118006B6109BF23691034AB61636960
:1046100002BF05F12000EB611834E4E72146FFF703
:1046200000FEE6E759465046FEF708FF834618B9F4
:104630005046FFF743F9C4E654F8043CA0F10802E1
:1046400023F001034B44934208D150F8047C27F037
:1046500003073744F5E600BF4C010020321F242A2F
:104660002ED8132A29D923681B2A03606368436064
:104670000ED804F1080200F10803116819605168AE
:10468000596092689A6021465046FEF717FE3BE754
:10469000A368242A8360E36818BF04F11002C36092
:1046A00009BF236900F110030361616902BF04F1CE
:1046B000180200F118034161DFE703462246DCE7F8
:1046C0002146FFF7AEFDDEE73746BAE61F43C9F8DD
:1046D0000470536843F001035360CEE60346084676
:1046E00041B1FF2A04D98A224FF0FF301A60704787
:1046F00001200A70704700000EB403B5014603ABF9
:10470000054853F8042B0068019300F039F802B013
:104710005DF804EB03B07047140000202DE9F84F5A
:10472000936880460E46144643B34B6E9D0422D5D3
:104730001568A068083528B90023A36000236360CA
:10474000BDE8F88F4FF0000955E902B74FEA970A24
:10475000CA4505DCA36827F00307DB1BA360E8E775
:10476000324640465BF8291000F0B7FE431CE3D008
:1047700009F10109ECE700F0CDFCDDE71846DDE7C3
:104780002DE9F04FBBB00F4693461C461D460090E6
:1047900018B1436B0BB9FDF7D9FD7B6EDB0705D470
:1047A000BB899E0502D4B86DFDF7B0FEB7F90C3099
:1047B000980406D443F40053BB817B6E23F400536A
:1047C0007B66BB89190701D53B69ABB939460098AF
:1047D00000F0ECFD80B17B6EDA0706D54FF0FF33B9
:1047E000039303983BB0BDE8F08FBB899B05F5D4DC
:1047F000B86DFDF78CFEF1E7B7F90C3003F01A0243
:104800000A2A14D1B7F90E20002A10DB7A6ED607D7
:1048100004D49D0502D4B86DFDF779FE23465A46AF
:10482000394600983BB0BDE8F04F00F033BC0023A0
:10483000CDE90F33CDE9053311AE0E9607930993F9
:1048400003935B461C4613F8012B0AB1252AF9D1C4
:10485000B4EB0B080DD0109BC6E900B8434410938D
:104860000F9B0133072B0F9375DC0836039B4344E2
:1048700003932378002B00F0CF8300234FF0FF3207
:104880009A46CDE9012301348DF83330A3461BF855
:10489000013BA3F120025A2A00F21383DFE812F051
:1048A0009A0011031103A2001103110311038200E6
:1048B00011031103A500AF001103AC00B1001103F7
:1048C000CD00D000D000D000D000D000D000D0006B
:1048D000D000D000110311031103110311031103C0
:1048E000110311031103F700040111031103110354
:1048F00011031103110311031103110311035101DA
:10490000110311031103980111037702110311031D
:104910009702110311031103110311031103110372
:10492000110311031103F700060111031103110311
:10493000E0000601F1001103EB0011033101530106
:104940008801F10011039801980079021103110305
:10495000650011039800394600980EAAFFF7DEFEA5
:10496000002840F0388311AE80E7984A05921AF08B
:10497000200200F02E82073525F00705A8466D6855
:1049800058F8084B1AF0010F09D054EA05021FBF6E
:1049900030228DF835308DF834204AF0020A2AF49E
:1049A000806A11E10098FDF765FD43681846099398
:1049B000FDF7BCFD07900098FDF75CFD836806934A
:1049C000079B2BB1069B1BB11B780BB14AF4806A85
:1049D0005C465BE79DF83330002BF9D120238DF83E
:1049E0003330F5E74AF0010AF2E755F8043B002BB3
:1049F0000293EDDA5B4202934AF0040AE8E72B23C4
:104A0000EDE75A4612F8013B2A2B12D155F8043B28
:104A1000934643EAE3730193DAE7019B00FB031338
:104A2000019312F8013BA3F130010929F5D993460E
:104A30002FE700210A200191F5E74AF0800AC7E735
:104A400000215A460A2002910299303B00FB0133B3
:104A5000029312F8013BA3F130010929F4D9E6E7EA
:104A60009BF80030682B06BF0BF1010B4AF4007A6B
:104A70004AF0400AACE79BF800306C2B04D10BF1F4
:104A8000010B4AF0200AA3E74AF0100AA0E7A84663
:104A9000002458F8043B8DF833408DF8843001230E
:104AA0000DF184090193A8E04AF0100A1AF0200FD2
:104AB00010D0073525F00705A8466D6858F8084B53
:104AC000002D05DA2D23644265EB45058DF8333062
:104AD000012348E0A8461AF0100F58F8045B02D0F2
:104AE0002C46ED17ECE71AF0400F03D02CB245F33B
:104AF000C035E5E71AF4007FF2D06CB245F3C0157B
:104B0000DEE71AF0200F07D0039A2B680399D2171B
:104B1000C3E90012043594E61AF0100F03D02B6895
:104B2000039A1A60F6E71AF0400F03D02B68039A35
:104B30001A80EFE71AF4007FF1D02B68039A1A70FD
:104B4000E8E74AF0100A1AF020031FD0073525F0D5
:104B50000705A8466D6858F8084B00232AF4806AB8
:104B600000228DF83320019A013200F062822AF08F
:104B70008002049254EA050240F06182019A002A00
:104B800000F09681012B40F05D8239E1A8461AF0D1
:104B9000100558F8044B01D01D46DEE71AF040031B
:104BA00001D0A4B2D9E71AF40075D6D0E4B2F3E785
:104BB00047F63003A8460025ADF83430034B58F8CB
:104BC000044B4AF0020A05930223C9E74263000836
:104BD000A8460025019B58F8049B5C1C8DF83350B7
:104BE00000F0D0801A4629464846FDF791FC04465D
:104BF00018B1A0EB090301932C46019BA342B8BF57
:104C0000234604939DF8333013B1049B013304937E
:104C10001AF0020308931EBF049B023304931AF098
:104C200084030A931FD1029B049A9D1A002D1ADD5A
:104C3000A94B102DDDE90F2106F1080002F1010258
:104C4000336000F34F817560072A0D44CDE90F25CD
:104C500040F35D81394600980EAAFFF75FFD0028FA
:104C600040F0B98111AE9DF83310DDE90F3261B12A
:104C70000DF133013160012101330A44072BCDE9E5
:104C80000F32716000F3458108360899DDE90F3273
:104C900059B10DA93160022101330A44072BCDE936
:104CA0000F32716000F33E8108360A9B802B1FD1C2
:104CB000029B049A9D1A002D1ADD884B102DDDE908
:104CC0000F2106F1080002F10102336000F3338185
:104CD0007560072A0D44CDE90F2540F3418139461F
:104CE00000980EAAFFF71AFD002840F0748111AE5B
:104CF000019BE41A002C1ADDDDE90F327748102CF5
:104D000003F1010306F10801306000F32B817460A8
:104D1000072B1444CDE90F3440F335813946009810
:104D20000EAAFFF7FBFC002840F0558111AE019B55
:104D3000019A7360109BC6F80090134410930F9B68
:104D40000133072B0F9300F3208106F108031AF0BB
:104D5000040F40F02281DDE9022304998A42ACBFAE
:104D60009B185B180393109B3BB1394600980EAA21
:104D7000FFF7D4FC002840F02E81002345460F9316
:104D800011AE5EE54846FDF7D1FB019034E74AF0ED
:104D9000100A1AF0200308D0073525F00705A846A9
:104DA0006D6858F8084B0123DAE6A8461AF010059A
:104DB00058F8044B01D01D46F5E71AF0400301D026
:104DC000A4B2F0E71AF40075EDD0E4B2F3E7444A78
:104DD000CCE5A8461AF0100558F8044B01D015464A
:104DE000D0E51AF0400201D0A4B2CBE51AF4007568
:104DF0003FF4C8ADE4B2F2E70A2C75F1000306D225
:104E00003034E4B28DF8E7400DF1E70936E14FF0B8
:104E1000000A3AAB0893049B03F480630A930A22C6
:104E200000232046294601F001F90B46089930324B
:104E300001F8012C0A9A0B9001F1FF390AF1010ADD
:104E4000E2B1069A1278524518D1BAF1FF0F15D087
:104E50000A2C75F1000211D30893079B0999A9EB5D
:104E600003091A464846FDF7F2FA069B5A78089B52
:104E700072B14FF0000A069A013206920A2C75F1BF
:104E80000005C0F0FB801D460B9CCDF82090C6E7C6
:104E90009246F3E7059A04F00F03D35C240944EA31
:104EA00005742D0909F8013D54EA0503F2D1E5E046
:104EB00023B91AF0010F01D03024A3E70DF1E8095E
:104EC000DCE0002B00F0A8800024A8468DF8843098
:104ED0008DF83340E3E500BFAF6600089F66000829
:104EE000536300084FF0100C072A6144CDE90F21ED
:104EF000C6F804C008DD394600980EAAFFF70EFC7C
:104F0000002868D1614B11A80646103D91E606467F
:104F1000A9E6394600980EAAFFF700FC00285AD1EE
:104F200011AEB2E6394600980EAAFFF7F7FB00284B
:104F300051D111AEB9E64FF0100C072A6144CDE90A
:104F40000F21C6F804C008DD394600980EAAFFF705
:104F5000E5FB00283FD14E4B11A80646103DADE6BB
:104F60000646C5E61020072B0244CDE90F327060DB
:104F700006DD394600980EAAFFF7D0FB58BB11A9F1
:104F80000E46103CB8E60E46D1E6394600980EAA09
:104F9000FFF7C4FBF8B911ABD9E6029A0499541A89
:104FA000002C7FF7D8AE1026384D102CDDE90F21EC
:104FB0001D6002F101021DDC5C60072A0C44CDE992
:104FC0000F247FF7C8AE394600980EAAFFF7A6FB5C
:104FD00000283FF4C0AE7B6ED90705D4BB899A0583
:104FE00002D4B86DFDF793FABB895B067FF5F9AB88
:104FF000FFF7F4BB1031072ACDE90F215E6002DC18
:105000000833103CD1E7394600980EAAFFF786FB1B
:105010000028E0D111ABF4E7109B13B900230F93E4
:10502000D9E7394600980EAAFFF778FB0028F5D09B
:10503000D1E754EA0502CDF810A03FF4A3AD012B4F
:105040003FF4DAAE022B0DF1E8093FF423AF04F090
:105050000703E40844EA4574ED08303354EA0501D7
:105060004A4609F8013DF2D10499C80706D5302B0C
:1050700004D0302309F8013CA2F102093AABA3EBBA
:105080000903019CDDF810A00193B6E5AF660008A6
:105090009F660008F0B51F468B89ADF26C4D23F07A
:1050A0000203ADF80C304B6E15461993CB890646BA
:1050B000ADF80E30CB6916A807934B6A0C460993DE
:1050C0001AAB009304934FF480630293059300237B
:1050D0000693FDF719FA2A463B4669463046FFF724
:1050E0004FFB051E07DB69463046FFF775F80028C1
:1050F00018BF4FF0FF35BDF80C3016985B0642BF65
:10510000A38943F04003A381FDF7FFF928460DF280
:105110006C4DF0BD93682DE9F74F06460C4691465D
:105120001BB9002003B0BDE8F08F8B89180750D55C
:105130000B69002B4DD0B4F90C30D9F8008013F076
:1051400002076BD113F0010300F09C803846BA4689
:10515000BB46BBF1000F00F0038150B95A460A214B
:105160005046FDF7D5F9002800F000810130A0EB92
:105170000A07206821695F453A4628BF5A46884297
:10518000A568636940F2F5801D44AA4240F3F180AE
:1051900051462A46FFF745F8236821462B443046FE
:1051A0002360FFF719F8002867D17F1B40F0F980D2
:1051B00021463046FFF710F800285ED1D9F80830B4
:1051C000AA445B1BABEB050BC9F80830002BC0D120
:1051D000A7E72146304600F0E9F80028ABD04FF0B1
:1051E000FF309FE7D8E900A508F10808D4F824B0FB
:1051F000E169002DF6D0BD422B46524628BF3B4602
:105200003046D847002838DDD9F8083082441B1AC8
:105210002D1AC9F80830002BE8D182E74FF0000AB8
:10522000614F5546E2E7D8E9007A08F10808B4F979
:105230000C302068A268BAF1000FF4D0990563D54C
:10524000524536D813F4906F33D021696569A0EBCD
:10525000010B05EB450505EBD5750BF101026D1052
:105260005244954238BF15465B053DD52946304628
:10527000FEF7E4F848B90C233360A38943F04003F8
:10528000A381ACE71F469A46D1E75A4621690190AF
:10529000FFF704F8A289019B22F4906242F0800299
:1052A000A2815246236165615B44A5EB0B05236037
:1052B000A560524528BF524655463946206801929E
:1052C000FEF7AFFFA368019A9B1AA36023681344FB
:1052D0002360D9F808302F445B1BAAEB050AC9F8F4
:1052E0000830002BA3D11CE72A463046FFF74AF8C6
:1052F00003460028D5D130462169FDF7DFFFA38999
:1053000023F08003A381B6E72369834202D3616956
:10531000514515D9524528BF524615463946FEF724
:1053200080FFA36822685B1B2A44A3602260002BD5
:10533000CFD121463046FEF74FFF0028C9D09CE769
:105340006FF00043534528BF534693FBF1F3656A62
:105350004B433A463046E169A847051EB9DC8CE765
:10536000D8E900AB002008F10808F2E60BF10107CC
:10537000FFE6934208DC656A52463046E169A84779
:10538000051E3FF712AF78E751460192FEF749FF3D
:10539000019AA36815469B1AA360236813442360EF
:1053A00003E701200AE700BF00FCFF7F38B5294B67
:1053B000054618680C4618B1436B0BB9FCF7C6FFDD
:1053C000B4F90C30190722D4DA0607D409222A606E
:1053D00043F040034FF0FF30A38133E0580712D56C
:1053E000216B41B104F14003994202D02846FDF7F8
:1053F00065FF00232363A38923F02403A3810023F3
:10540000636023692360A38943F00803A3812369B0
:105410004BB9A38903F42073B3F5007F03D0214671
:10542000284600F0C7F8B4F90C3013F001020AD096
:105430000022A26062695242A261226942B913F05D
:105440008000C5D138BD990758BF6269A260F4E7F2
:105450000020F7E7140000202DE9F74380460F46AF
:105460001446FEF7F9FE012805461BD17B1EFE2BD4
:1054700018D88DF8047000260DF10409AE4221D031
:10548000A36816F80910013B002BA36004DAA26997
:1054900093421BDB0A2919D023685A1C2260197019
:1054A0000136EBE704F15C033A46404601A900F0FF
:1054B00043F8431C0546DED1A38943F04003A38192
:1054C0004FF0FF37384603B0BDE8F0832246404630
:1054D00000F0ACF80130E3D1F2E7536E70B5DB07B2
:1054E00005460E46144605D49389980502D4906D5E
:1054F000FDF70CF8B4F90C30990406D443F40053CA
:10550000A381636E43F40053636622462846314606
:10551000FFF7A2FF636E0546DA0705D4A3899B0552
:1055200002D4A06DFCF7F3FF284670BD014B18684C
:10553000704700BF14000020F0B5094C05461E4618
:10554000D4F8E07085B009B90A4601A9B847431CF0
:1055500001BF002333608A232B6005B0F0BD00BF7C
:105560005405002070B50C46B1F90E1015460029FF
:105570001E4696B007DAA18911F0800117D14FF4C9
:10558000806308460FE06A4600F09AF80028F2DBD4
:1055900001994FF4006001F47041A1F500535942A4
:1055A00059414FF4806331602B6016B070BD00210B
:1055B0004023E6E78B89F7B59D0706460C4607D5DD
:1055C00004F14303236023610123636103B0F0BD51
:1055D0006A4601ABFFF7C6FF009F054639463046D5
:1055E000FDF72CFF48B9B4F90C309A05EED423F03E
:1055F000030343F00203A381E2E7A389C4E904079C
:1056000043F08003A381019B20605BB13046B4F975
:105610000E1000F067F828B1A38923F0030343F0CC
:105620000103A381A3891D43A581CFE7F8B50E46E9
:105630001446054618B1436B0BB9FCF787FEA36906
:10564000A360A389190701D5236943B921462846D8
:10565000FFF7ACFE18B14FF0FF373846F8BDB4F98C
:105660000C30F6B29A04374606D443F40053A381B3
:10567000636E23F40053636623682269981A636992
:10568000834205DC21462846FEF7A6FD0028E2D12C
:10569000A368013BA36023685A1C22601E706269E4
:1056A000431C9A4204D0A389DB07D6D50A2ED4D155
:1056B00021462846FEF790FD0028CED0CBE700001B
:1056C00038B50023064D0446084611462B60FBF70B
:1056D0001EFB431C02D12B6803B1236038BD00BF01
:1056E0000008002038B50023054D044608462B600D
:1056F000FBF71CFB431C02D12B6803B1236038BDB0
:105700000008002081F0004102E000BF83F0004368
:1057100030B54FEA41044FEA430594EA050F08BF4C
:1057200090EA020F1FBF54EA000C55EA020C7FEA10
:10573000645C7FEA655C00F0E2804FEA5454D4EB8D
:105740005555B8BF6D420CDD2C4480EA020281EA57
:10575000030382EA000083EA010180EA020281EA8F
:105760000303362D88BF30BD11F0004F4FEA0131E1
:105770004FF4801C4CEA113102D0404261EB4101F0
:1057800013F0004F4FEA03334CEA133302D0524276
:1057900063EB430394EA050F00F0A780A4F1010432
:1057A000D5F1200E0DDB02FA0EFC22FA05F280186C
:1057B00041F1000103FA0EF2801843FA05F3594152
:1057C0000EE0A5F120050EF1200E012A03FA0EFCD1
:1057D00028BF4CF0020C43FA05F3C01851EBE371FB
:1057E00001F0004507D54FF0000EDCF1000C7EEB18
:1057F00000006EEB0101B1F5801F1BD3B1F5001F56
:105800000CD349085FEA30004FEA3C0C04F1010474
:105810004FEA445212F5800F80F09A80BCF1004F9D
:1058200008BF5FEA500C50F1000041EB045141EA1F
:10583000050130BD5FEA4C0C404141EB0101013CE8
:1058400028BFB1F5801FE9D291F0000F04BF0146D7
:105850000020B1FA81F308BF2033A3F10B03B3F1A9
:1058600020020CDA0C3208DD02F1140CC2F10C0239
:1058700001FA0CF021FA02F10CE002F11402D8BF97
:10588000C2F1200C01FA02F120FA0CFCDCBF41EA63
:105890000C019040E41AA2BF01EB0451294330BD32
:1058A0006FEA04041F3C1CDA0C340EDC04F114040F
:1058B000C4F1200220FA04F001FA02F340EA0300E6
:1058C00021FA04F345EA030130BDC4F10C04C4F12C
:1058D000200220FA02F001FA04F340EA030029460C
:1058E00030BD21FA04F0294630BD94F0000F83F456
:1058F000801306BF81F480110134013D4EE77FEA39
:10590000645C18BF7FEA655C29D094EA050F08BF84
:1059100090EA020F05D054EA000C04BF1946104665
:1059200030BD91EA030F1EBF0021002030BD5FEAA9
:10593000545C05D14000494128BF41F0004130BDD1
:1059400014F580043CBF01F5801130BD01F0004525
:1059500045F0FE4141F470014FF0000030BD7FEA98
:10596000645C1ABF194610467FEA655C1CBF0B4693
:10597000024650EA013406BF52EA033591EA030FAA
:1059800041F4002130BD00BF90F0000F04BF0021A2
:10599000704730B54FF4806404F132044FF00005D5
:1059A0004FF0000150E700BF90F0000F04BF00214E
:1059B000704730B54FF4806404F1320410F00045B4
:1059C00048BF40424FF000013EE700BF42004FEAAF
:1059D000E2014FEA31014FEA02701FBF12F07F432C
:1059E00093F07F4F81F06051704732F07F4208BFE3
:1059F000704793F07F4F04BF41F40021704730B5EA
:105A00004FF4607401F0004521F000411CE700BF35
:105A100050EA010208BF704730B54FF000050AE0B8
:105A200050EA010208BF704730B511F0004502D5B9
:105A3000404261EB41014FF4806404F132045FEABB
:105A4000915C3FF4D8AE4FF003025FEADC0C18BF64
:105A500003325FEADC0C18BF033202EBDC02C2F156
:105A6000200300FA03FC20FA02F001FA03FE40EAE8
:105A70000E0021FA02F11444BDE600BF70B54FF0EC
:105A8000FF0C4CF4E06C1CEA11541DBF1CEA1355CA
:105A900094EA0C0F95EA0C0F00F0DEF82C4481EA32
:105AA000030621EA4C5123EA4C5350EA013518BF52
:105AB00052EA033541F4801143F4801338D0A0FB3F
:105AC00002CE4FF00005E1FB02E506F00042E0FBEC
:105AD00003E54FF00006E1FB03569CF0000F18BFF2
